:100000000C9475000C949D000C949D000C949D0024
:100010000C949D000C949D000C949D000C94AF21B9
:100020000C949D000C949D000C949D000C94E82C65
:100030000C949D000C949D000C949D000C949D00CC
:100040000C9446200C949D000C9455220C942F2265
:100050000C949D000C949D000C949D000C949D00AC
:100060000C9490200C949D00084AD73B3BCE016E27
:1000700084BCBFFDC12F3D6C74319ABD56833DDAFF
:100080003D00C77F11BED9E4BB4C3E916BAAAABE0E
:10009000000000803F000200000008000201000094
:1000A000030407000000000000000000000000251D
:1000B0000028002B0000000000240027002A000474
:1000C00004040404040404020202020202030303FF
:1000D00003030301020408102040800102040810F9
:1000E0002001020408102000EB2C11241FBECFEFCA
:1000F000D8E0DEBFCDBF13E0A0E0B1E0E2E7F7E675
:1001000002C005900D92AC3FB107D9F727E0ACEFE4
:10011000B3E001C01D92AE3AB207E1F710E0C5E7C7
:10012000D0E004C02197FE010E947532C437D10788
:10013000C9F70E94B62D0C94B7330C94000090E0E0
:10014000FC01ED52FF4F249181549F4FFC0184919B
:10015000882399F090E0880F991FFC01EB54FF4F22
:10016000A591B491FC01E555FF4F859194918FB70E
:10017000F894EC91E22BEC938FBF0895982F209187
:10018000F40481E0213208F047C08091D00481114D
:10019000FCCF8091F30432E03093D0049093CF04ED
:1001A0009FEF9093CE041092CD042093CC04A3ED46
:1001B000B4E0ECEAF4E090E0291721F03D913193AE
:1001C0009F5FFACF1092AB049091AB04880F892BFC
:1001D0008093AB048091AA04813029F51092AA047F
:1001E0008091AB048093BB008091BC0083FDF8CF6D
:1001F00085EC8093BC008091D0048230E1F3809143
:10020000CE048F3F91F08091CE04803281F08091B6
:10021000CE04803371F084E01092D2041092F40482
:100220001092D104089585EEE4CF80E0F5CF82E00E
:10023000F3CF83E0F1CFCF93DF9300D000D0CDB7E1
:10024000DEB719821A821B821C8289819A81AB8156
:10025000BC818A3F9105A105B10568F40000898140
:100260009A81AB81BC810196A11DB11D89839A83BE
:10027000AB83BC83EACF80E00F900F900F900F907C
:10028000DF91CF9108954F925F926F927F928F92FC
:100290009F92AF92BF92CF92DF92EF92FF920F9315
:1002A0001F93CF93F9010FEF1FEF98010083118384
:1002B000228333834A015B01B3E0B694A7949794F9
:1002C0008794BA95D1F76A017B0127E0C222DD2429
:1002D000EE24FF2495018401C0E0063011052105BC
:1002E000310508F041C0C1113FC0DC01A00FB11FB2
:1002F0006C91412C512C320180169106A206B30656
:1003000049F470E00C2C02C0759567950A94E2F7E9
:1003100026013701462F50E060FF17C0B901A80140
:10032000A3E0440F551F661F771FAA95D1F7440E0F
:10033000551E661E771E4082518262827382C1E022
:100340000F5F1F4F2F4F3F4FC8CFBA01759567956D
:100350004FEF441A540A640A740A48E044165104E0
:1003600061047104B9F6ECCFCF911F910F91FF900A
:10037000EF90DF90CF90BF90AF909F908F907F9045
:100380006F905F904F9008958091880490918904B8
:10039000891B990B089590E0FC01E956FF4F2491C9
:1003A000FC01ED52FF4F3491FC01E154FF4FE49109
:1003B000EE23C9F0222339F0233001F1A8F42130D3
:1003C00019F1223029F1F0E0EE0FFF1FE555FF4F44
:1003D000A591B4918FB7F894EC91611126C0309536
:1003E0003E233C938FBF08952730A9F02830C9F0F1
:1003F000243049F7809180008F7D03C08091800078
:100400008F7780938000DFCF84B58F7784BDDBCF7B
:1004100084B58F7DFBCF8091B0008F778093B00043
:10042000D2CF8091B0008F7DF9CF3E2BDACF0895E7
:1004300008950895E091890480918804E81730F4C4
:10044000F0E0E657FB4F808190E008958FEF9FEF3B
:10045000089590918904809188042FEF3FEF9817B9
:1004600048F4E92FF0E0E657FB4F208130E09F5F32
:1004700090938904C901089585ED8093BC00809113
:10048000BC0084FDFCCF1092D004089520914F044D
:10049000260F3327331F21323105E4F42091D00495
:1004A0002430D1F4FC0190E080E0861760F4A09144
:1004B0004F042191AC01415D5B4FA40FB52FB11DDD
:1004C0002C930196F2CF80914F04680F60934F04F4
:1004D00080E0089581E0089582E00895CF92DF9250
:1004E000EF92FF920F931F93CF93DF937C01CB0189
:1004F0008A012091D104222389F0EB016B01C40E03
:10050000D51ECC15DD0569F06991D701ED91FC91FF
:100510000190F081E02DC7010995F3CF642F0E946F
:100520004602C801DF91CF911F910F91FF90EF908C
:10053000DF90CF900895CF93DF931F92CDB7DEB7B2
:1005400069832091D1042223F9F02091F404203210
:1005500058F021E030E0FC013383228390E080E01A
:100560000F90DF91CF9108958091D204E82FF0E0B1
:10057000ED52FB4F998190838F5F8093D2048093DB
:10058000F40481E090E0ECCF61E0CE0101960E949E
:100590004602F7CF1092D00481E08093CF041092EE
:1005A000AA0461E082E10E94CB0161E083E10E9444
:1005B000CB01E9EBF0E080818E7F808380818D7FAD
:1005C000808388E48093B80085E48093BC0008951C
:1005D000CF92DF92EF92FF920F931F93CF93DF930F
:1005E000EA01680191E09093D1048093F3041092A2
:1005F000D2041092F4048BEC96E00E949B02CC0E85
:10060000DD1ECC15DD0531F069918BEC96E00E9482
:100610009B02F7CF81E00E94BE0090E080E0DF9176
:10062000CF911F910F91FF90EF90DF90CF900895A1
:100630000F931F93CF93DF9300D0CDB7DEB78F5BBF
:100640009E4FFC0180814A83598302E010E020E044
:1006500030E0AE014F5F5F4F0E94E802892B41F00E
:100660008CEE0F900F90DF91CF911F910F91089515
:1006700080E0F7CF0F931F93CF93DF931F92CDB7F7
:10068000DEB78F5B9E4FFC018081498301E010E063
:1006900020E030E0AE014F5F5F4F0E94E802892BFF
:1006A00039F08CEE0F90DF91CF911F910F9108954B
:1006B00080E0F8CF0F931F93AB018F5B9E4F06E056
:1006C00010E020E030E060EBFC0180810E94E80255
:1006D000892B21F08CEE1F910F91089580E0FBCFC4
:1006E0008EBD00000DB407FEFDCF8EB50895CF93EB
:1006F000DF93D82FC62F8091A406882329F081305C
:1007000021F180E090E01EC08091A50691E09093D9
:10071000D1048093F3041092D2041092F4046D2F4C
:100720008BEC96E00E949B026C2F8BEC96E00E9473
:100730009B0281E00E94BE0021E090E0811101C097
:1007400020E0822FDF91CF91089560E08091A6068E
:100750000E94CB018D2F0E9470038C2F0E9470038A
:1007600061E08091A6060E94CB01CBCFAF92BF92F1
:10077000CF92DF92EF92FF920F931F93CF93DF936D
:100780006C017B018B01040F151FEB015E01AE189C
:10079000BF08C017D10759F06991D601ED91FC91BE
:1007A0000190F081E02DC6010995892B79F7C501EB
:1007B000DF91CF911F910F91FF90EF90DF90CF903D
:1007C000BF90AF90089590E080E00895FC01538DB4
:1007D000448D252F30E0842F90E0821B930B54171B
:1007E00010F0CF96089501970895FC01918D828DA8
:1007F000981761F0A28DAE0FBF2FB11D5D968C9141
:10080000928D9F5F9F73928F90E008958FEF9FEF7F
:100810000895FC01918D828D981731F0828DE80F3B
:10082000F11D858D90E008958FEF9FEF0895FC01F5
:10083000918D228D892F90E0805C9F4F821B9109C2
:100840008F73992708958DE097E00E94170421E0A7
:10085000892B09F420E0822F08950E94230481113E
:100860000C940000089580E090E0892B11F00C9426
:100870002D040895FC01A48DA80FB92FB11DA35A12
:10088000BF4F2C91848D90E001968F739927848FB0
:10089000A689B7892C93A089B1898C9183708064D3
:1008A0008C93938D848D981306C00288F389E02D74
:1008B00080818F7D80830895EF92FF920F931F9325
:1008C000CF93DF93EC0181E0888F9B8D8C8D981303
:1008D0001AC0E889F989808185FF15C09FB7F8940F
:1008E000EE89FF896083E889F9898081837080645B
:1008F00080839FBF81E090E0DF91CF911F910F91A6
:10090000FF90EF900895F62E0B8D10E00F5F1F4FB4
:100910000F731127E02E8C8D8E110CC00FB607FCC3
:10092000FACFE889F989808185FFF5CFCE010E9451
:100930003A04F1CFEB8DEC0FFD2FF11DE35AFF4F81
:10094000F0829FB7F8940B8FEA89FB8980818062DF
:10095000CFCFCF93DF93EC01888D8823B9F0AA899C
:10096000BB89E889F9898C9185FD03C0808186FD6A
:100970000DC00FB607FCF7CF8C9185FFF2CF8081B9
:1009800085FFEDCFCE010E943A04E9CFDF91CF91F0
:100990000895E091FA04F091FB048081811107C071
:1009A0008FEF9FEF90932C0480932B040895E09198
:1009B000FA04F091FB040580F681E02D0680F781B2
:1009C000E02D82819381EECF9091D0049111FCCFE4
:1009D000613208F060E291E09093D0049093CF04EC
:1009E0002FEF2093CE041092CD04260F2093CC0439
:1009F0009093AB049091AB04880F892B8093AB0448
:100A00008091AA04813011F51092AA048091AB0460
:100A10008093BB008091BC0083FDF8CF85EC809370
:100A2000BC008091D0048130E1F38091CD04861721
:100A300010F46091CD04ACEAB4E0EAE8F4E080E0C0
:100A4000681731F09D9191938F5FFACF85EEE7CFD4
:100A50001092890460938804862F0895EF92FF9284
:100A60000F931F93CF93DF9300D0CDB7DEB77C01F8
:100A7000162F8091A406882329F0813099F110E087
:100A800000E051C08091A50691E09093D10480933D
:100A9000F3041092D2041092F4048BEC96E00E94BE
:100AA0009B0281E00E94BE0001E010E081113BC08A
:100AB00062E08091A5060E94E40410918804809170
:100AC00089048117E1F28BEC96E00E942902898368
:100AD00080918904811799F28BEC96E00E9429029B
:100AE0008A83CDCF60E08091A6060E94CB01812F42
:100AF00080680E94700380E00E94700311E08F3FC5
:100B000009F010E0898380E00E9470038F3F09F4B0
:100B10001F5F8A831230B1F010E000E061E0809145
:100B2000A6060E94CB0189819A81F7019183808377
:100B3000C8010F900F90DF91CF911F910F91FF90FF
:100B4000EF90089505E010E0E9CFEF92FF921F9338
:100B5000CF93DF937C01C62F8091A406882321F0D8
:100B6000813051F1D0E03DC08091A50691E0909395
:100B7000D1048093F3041092D2041092F4048BEC0D
:100B800096E00E949B0281E00E94BE00D1E0C0E09E
:100B9000811101C0D0E061E08091A5060E94E404CB
:100BA00090918804809189049817E1F08BEC96E08D
:100BB0000E942902182FF4CF60E08091A6060E94BF
:100BC000CB018C2F80680E94700380E00E9470032C
:100BD000182F61E08091A6060E94CB01D5E01F3F4F
:100BE00009F6C0E0F70110838D2F9C2FDF91CF9184
:100BF0001F91FF90EF900895BF92CF92DF92EF92F6
:100C0000FF920F931F93CF93DF93B82EEA016801F1
:100C100081E08093D104B092F3041092D204109238
:100C2000F4048BEC96E00E949B0281E00E94BE00DF
:100C3000602F8B2D0E94E404CC0EDD1ECC15DD054B
:100C400031F08BEC96E00E9429028993F7CF90E077
:100C500080E0DF91CF911F910F91FF90EF90DF9097
:100C6000CF90BF9008952F923F924F925F926F92D4
:100C70007F928F929F92AF92BF92CF92DF92EF922C
:100C8000FF920F931F93CF93DF93CDB7DEB72F97CC
:100C90000FB6F894DEBF0FBECDBF9C878B876D87E4
:100CA0005F874E873901170128012F8238864986D0
:100CB0005A8610E000E0EE24E394F12C0A151B059F
:100CC00009F461C09E01295F3F4FB201A1018E85E9
:100CD0009F850E9443014F81588569857A854F3FE2
:100CE0002FEF52076207720709F496C0DB01CA01B1
:100CF0008C549F4FAF4FBF4FE6E0B695A7959795A1
:100D00008795EA95D1F7880F991F880F991F86500C
:100D10009E4F21E0FC0180819181A281B381892BCA
:100D20008A2B8B2B09F420E0FD85F21375C01A0184
:100D30002B0133E056944794379427943A95D1F792
:100D4000DB01CA0187709927AA27BB2726E0221654
:100D500031044104510468F4F301E20DF31D9701DD
:100D600002C0220F331F8A95E2F7C9019081892BB7
:100D700080831A012B013FEF231A330A430A530AD7
:100D80000F5F1F4F9BCFF12CF401208231824282F2
:100D90005382F11027C0B3018B859C850E945A03B2
:100DA000F82E81111FC0EB85FC85EF5BFE4F06E03E
:100DB00010E020E030E0AE014F5F5F4F60EB8081DC
:100DC0000E94FC05892B11F09CEEF92EF301DE0147
:100DD0001196C301069631912D91321320C0E81768
:100DE000F907C9F78F2D2F960FB6F894DEBF0FBE07
:100DF000CDBFDF91CF911F910F91FF90EF90DF90CA
:100E0000CF90BF90AF909F908F907F906F905F90AA
:100E10004F903F902F9008952EECF22EB5CF8EEC90
:100E2000F82EE0CFEF92FF920F931F93CF93DF93B3
:100E300000D000D0CDB7DEB77A018F5B9E4F04E0C3
:100E400010E020E030E0AE014F5F5F4FFC01808199
:100E50000E94FC0549815A8154274527542770E098
:100E600060E0762F652F542F44272B81422B762F5D
:100E7000652F542F44272C81422BF7014083518347
:100E800062837383892B61F480E00F900F900F9041
:100E90000F90DF91CF911F910F91FF90EF900895E8
:100EA0008CEEF3CFEF92FF920F931F93CF93DF93CC
:100EB00000D0CDB7DEB77A018F5B9E4F02E010E025
:100EC00020E030E0AE014F5F5F4FFC0180810E9467
:100ED000FC0529813A81322723273227F701318304
:100EE0002083892B51F480E00F900F90DF91CF91F8
:100EF0001F910F91FF90EF9008958CEEF5CFEF9238
:100F0000FF920F931F93CF93DF9300D0CDB7DEB73F
:100F10008C017A016330710509F449C090F46130A5
:100F2000710509F162307105E1F1F80181A992A919
:100F3000A3A9B4A9F70180839183A283B38380E03E
:100F400049C06630710588F7AE014F5F5F4F64E6B8
:100F50000E94520781113EC0298180E0922F990F93
:100F6000B0E0A0E0E7CFAE014F5F5F4F64E40E94C6
:100F7000520781112FC0998120E0392F330FA90129
:100F800070E060E0232BD1F0F7014083518362834E
:100F90007383F80145AB56AB67AB70AF91E096A396
:100FA00019C0FC0181AD92ADA3ADB4ADC3CFFC01BE
:100FB000FD9680819181A281B381BCCFF80145A9C2
:100FC00056A967A970ADF70140835183628373838B
:100FD000F80116A20F900F90DF91CF911F910F9102
:100FE000FF90EF900895CF92DF92EF92FF920F93D0
:100FF0001F93CF93DF9300D0CDB7DEB7D62EF42E5C
:10100000C22E8F5B9E4FFC01E08001E010E020E0EB
:1010100030E0AE014E5F5F4F8E2D0E94FC05892BA4
:1010200091F42A812F212C292A83298301E010E0C1
:1010300020E030E0AE014F5F5F4F6D2D8E2D0E949E
:10104000E802892B61F08CEE0F900F90DF91CF9129
:101050001F910F91FF90EF90DF90CF90089580E067
:10106000F3CFFF920F931F93CF93DF93EC018B018C
:10107000F42E80E021E040E050E0BA01FF2069F06A
:10108000F801EE0FFF1FEE0FFF1FEC0FFD1F41A930
:1010900052A963A974A98F2D20E00330110591F1A5
:1010A00070F401301105C9F00230110549F18DA32A
:1010B000C00FD11FF1102BC01DA280E01BC0043057
:1010C000110511F12295207F4FEE0530110579F7BA
:1010D00060E6CE010E94F3070BC089E07695679524
:1010E000579547958A95D1F764E4CE010E9418037D
:1010F0008823F1F2DF91CF911F910F91FF90089516
:101100008FA3D6CF88A7D4CF220F4EEFE1CF81E0B7
:101110008DA3D3CF0F931F938F5B9E4F01E010E001
:1011200020E030E0FC0180810E94FC05892B21F049
:101130008CEE1F910F91089580E0FBCFEF92FF920C
:101140000F931F93CF93DF931F92CDB7DEB77C0130
:1011500000E041E06BE0C7010E943A03182F40E035
:101160006BE0C7010E943A03182BAE014F5F5F4F3F
:1011700063E1C7010E948A08812B0F5F99819770F4
:1011800061F0033061F0882321F30F90DF91CF915C
:101190001F910F91FF90EF9008950330B1F784EF06
:1011A000F4CF0F931F93CF93DF931F92CDB7DEB78A
:1011B0008A01AE014F5F5F4F613081F060E50E94B0
:1011C0008A08811105C099819F5F990FF80190836A
:1011D0000F90DF91CF911F910F91089560E7EFCFAE
:1011E000CF92DF92EF92FF921F93CF93DF931F92E4
:1011F000CDB7DEB77C0140E063E80E943A03182FC8
:10120000811117C0D12CC12CAE014F5F5F4F63E835
:10121000C7010E948A08182F898181110AC0111103
:1012200008C08FEFC81AD80A88ECC816D10461F735
:1012300019EF41E063E8C7010E943A03812B0F9048
:10124000DF91CF911F91FF90EF90DF90CF900895A5
:10125000CF92DF92EF92FF920F931F93CF93DF9382
:101260001F92CDB7DEB77C0110E000E06C018EEC80
:10127000C80ED11CF6018081AE014F5F5F4F8430F4
:10128000A9F463E1C7010E948A089981292F277078
:10129000987111F58823D9F00F90DF91CF911F91AC
:1012A0000F91FF90EF90DF90CF90089564E1C70118
:1012B0000E948A088111F0CF998190FDEDCF0F5FD8
:1012C0001F4F083C110531F00E941B01D3CF243081
:1012D000B1F7E2CF89EFE0CF8AEFDECFCF93DF9394
:1012E000EC01462F416060E00E943A03811111C079
:1012F000CE010E94280981110CC0CE010E949E08D7
:10130000811107C040E060E0CE01DF91CF910C94E5
:101310003A03DF91CF9108950F931F93CF93DF93FB
:101320001F92CDB7DEB78B011982AE014F5F5F4FC1
:1013300061E00E948A08811116C0998194FB3327CD
:1013400030F9F801308393FB332730F9328392FB75
:10135000332730F9318396FB222720F92383991F05
:101360009927991F94830F90DF91CF911F910F912F
:1013700008952F923F924F925F926F927F928F9239
:101380009F92AF92BF92CF92DF92EF92FF921F9304
:10139000CF93DF93CDB7DEB72B970FB6F894DEBFB0
:1013A0000FBECDBF6C011A011B861F821E826230E8
:1013B00009F06EC0AE01465F5F4F60E00E94D10849
:1013C000182F811108C0AE01455F5F4F66E4C6016A
:1013D0000E948A08182FAA85B0E020E03FE24AE385
:1013E00050E00E94FD2F2B013C0124EF420E21E032
:1013F000521E611C711CCB84D12CF12CE12C8FEF7F
:10140000C81AD80AE80AF80A98EE892E93E0992EAD
:10141000A12CB12CC301B201A50194010E94083096
:10142000CA01B901A70196010E9451326B017C01EA
:10143000C301B20120ED37E040E050E00E940830E7
:10144000C701B601620F731F841F951FA501940188
:101450000E940830F1012083318342835383812F1E
:101460002B960FB6F894DEBF0FBECDBFDF91CF91A4
:101470001F91FF90EF90DF90CF90BF90AF909F9023
:101480008F907F906F905F904F903F902F90089536
:10149000633009F043C0AE01465F5F4F60E00E94D9
:1014A000D108182F20E030E0A9018111D3CFAE017F
:1014B000465F5F4F60E0C6010E94D108182F81117E
:1014C00008C0AE014A5F5F4F61E5C6010E94520746
:1014D000182FEE81FF81AA85B0E020E03FE24AE3C9
:1014E00050E00E94FD2F2B013C0124EF420E21E031
:1014F000521E611C711C6F01DD24F12CE12C04C013
:10150000CC0CDD1CEE1CFF1CFA95D2F78FEFC81A2D
:10151000D80AE80AF80AEE24FF2476CFBE016F5FEE
:101520007F4F0E948C098C81882351F1AE01465F68
:101530005F4F60E0C6010E94D108182FF12CE12C0A
:1015400081111BC0AE014A5F5F4F61E5C6010E9479
:101550005207182F2E813F81C9019927B0E0A0E0E2
:1015600004C0880F991FAA1FBB1F3A95D2F7019696
:10157000A11DB11D7C01112329F0D12CC12C25C046
:10158000F12CE12CAE01465F5F4F61E0C6010E9485
:10159000D108182F8111F1CFAE01485F5F4F61E78D
:1015A000C6010E945207182F28853985C90199273D
:1015B000B0E0A0E004C0880F991FAA1FBB1F3A9596
:1015C000D2F70196A11DB11D6C01AA85B0E020E003
:1015D0003FE24AE350E00E94FD2F2B013C01E4EF83
:1015E0004E0EE1E05E1E611C711C88EE882E83E0C9
:1015F000982EA12CB12CC301B201A50194010E9427
:101600000830D601AE19BF090E94FD2F0FCF4F92AF
:101610005F926F927F92BF92CF92DF92EF92FF9292
:101620000F931F93CF93DF9300D000D0CDB7DEB7D9
:101630008A01AE014F5F5F4F0E94B909B82E811138
:101640002AC069817A818B819C8128EE422E23E019
:10165000522E612C712CA30192010E940830690165
:101660007A019B01AC01AFEFBFEF0E94FD2F6C50E0
:101670007E4F8F4F9F4FA30192010E940830760149
:10168000DD24CC24C20ED31EE41EF51EF801C08258
:10169000D182E282F3828B2D0F900F900F900F90EA
:1016A000DF91CF911F910F91FF90EF90DF90CF903E
:1016B000BF907F906F905F904F9008955F926F9270
:1016C0007F928F929F92AF92BF92CF92DF92EF92D2
:1016D000FF920F931F93CF93DF93CDB7DEB7619740
:1016E0000FB6F894DEBF0FBECDBF7C018B01FC01AD
:1016F0008089FB018083AE014A5F5F4F68EFC701BD
:101700000E945207582E81113AC1AE014F5F5F4FC0
:1017100064E0C7010E941207582E811130C12E814A
:101720003F812115310569F050E040E069817A81FF
:101730008B819C810E940830F80126833783408783
:101740005187F80186819781A085B185F701868B45
:10175000978BA08FB18FF8011286AE014F5F5F4F5C
:1017600060E2C7010E945207582E811108C1898189
:101770009A81009709F01AC1F701858D968DA78D82
:10178000B0A1F80185879687A787B08BF701128EE5
:10179000AE014F5F5F4F68E2C7010E945207582EAB
:1017A0008111EDC089819A819F708115F8E09F07B2
:1017B00008F090514AEF489F9001499F300D112445
:1017C000C901330FAA0BBB0BF801818B928BA38B42
:1017D000B48B5801F1E2AF0EB11C470125E2820E35
:1017E000911C380185E1680E711CD12CC12CA5011A
:1017F000B601C7010E947F07582E8111C0C0F401B5
:1018000081914F01F30181933F01FFEFCF1ADF0A6E
:1018100024E0A20EB11C86E0C816D10441F7AE0147
:101820004F5F5F4F61E0C7010E948A08582E811107
:10183000A6C08981F701E35EFE4F808387FFCAC09F
:1018400081E0F80181AFF80181ADF701E75BFF4F5F
:10185000808380ED97E0A0E0B0E08A879B87AC872B
:10186000BD871E821F821886198686E39BE0A0E052
:10187000B0E0F80182839383A483B583BE016F5FD8
:101880007F4FC7010E948C09582E811178C0898131
:10189000811107C08A81811104C08B81882309F4DA
:1018A0003EC0AE01465F5F4F62E0C7010E94B909CA
:1018B0008111C1C089818823A9F08A859B85AC8567
:1018C000BD85825B9D4FAF4FBF4FF8014281538171
:1018D00064817581840F951FA61FB71F8283938330
:1018E000A483B5838B81882309F477C08A859B857F
:1018F000AC85BD858E549D4FAF4FBF4F880F991F4C
:10190000AA1FBB1FF8014281538164817581840F36
:10191000951FA61FB71F82839383A483B5838C81F1
:10192000811168C08D81882301F1AE01425F5F4F54
:1019300064E0C7010E94B9098E849F84A888B98891
:10194000F6E28F0EF2E09F1EA11CB11CF80142814D
:10195000538164817581480D591D6A1D7B1D428329
:10196000538364837583811166C0F80182819381FA
:10197000A481B581F701828B938BA48BB58B852DC8
:1019800061960FB6F894DEBF0FBECDBFDF91CF9149
:101990001F910F91FF90EF90DF90CF90BF90AF908D
:1019A0009F908F907F906F905F90089533E0880FA5
:1019B000991F3A95E1F7B0E0A0E0F8018587968796
:1019C000A787B08BF701858F968FA78FB0A381E093
:1019D000828FDECEF80111AE36CF8A81882309F4DA
:1019E0009ECF8A859B85AC85BD858C569D4FAF4F1C
:1019F000BF4F88CFAE014A5F5F4F63E0C7010E94CF
:101A0000B9098E809F80A884B984F4E98F0EF2E032
:101A10009F1EA11CB11CF801428153816481758114
:101A2000480D591D6A1D7B1D428353836483758352
:101A3000882309F477CF582EA2CF9F92AF92BF92FE
:101A4000CF92DF92EF92FF920F931F93CF93DF938A
:101A50001F92CDB7DEB77C015B016A01922E19821D
:101A600041E06FEF0E943A03182F40E060E0C701A9
:101A70000E943A03182B40E06FEFC7010E943A031F
:101A8000182B992031F0A5016BECC7010E948A0840
:101A9000182B002341F0AE014F5F5F4F6EEEC70180
:101AA0000E948A08182B41E06FEFC7010E943A0399
:101AB000182B41E060E0C7010E943A03182B40E078
:101AC0006FEFC7010E943A0399819F7EF6019083D0
:101AD000812B0F90DF91CF911F910F91FF90EF908D
:101AE000DF90CF90BF90AF909F9008952F923F923C
:101AF0004F925F926F927F928F929F92AF92BF921E
:101B0000CF92DF92EF92FF920F931F93CF93DF93C9
:101B1000CDB7DEB769970FB6F894DEBF0FBECDBF65
:101B200000ED17E020E030E00B871C872D873E8713
:101B30001F86188A198A1A8A40322EE452076105D4
:101B40007105E0F45CEFB52E8B2D69960FB6F89415
:101B5000DEBF0FBECDBFDF91CF911F910F91FF90E0
:101B6000EF90DF90CF90BF90AF909F908F907F903D
:101B70006F905F904F903F902F9008954E8B5F8BAA
:101B8000688F798F8C01BE016A5F7F4F0E948C093C
:101B9000B82E8111D9CFCE88DF88E88CF98C88EEF9
:101BA000C81A88E0D80AE108F1088E81811106C0C0
:101BB0008F81811103C088858823C1F1AE01455F03
:101BC0005F4F62E0C8010E94B90981110AC18E818C
:101BD000882391F08B859C85AD85BE85825B9D4F6A
:101BE000AF4FBF4F8C159D05AE05BF0508F0AACFBE
:101BF000C81AD90AEA0AFB0A8885882309F471C041
:101C00008B859C85AD85BE858E549D4FAF4FBF4F54
:101C1000880F991FAA1FBB1F8C159D05AE05BF0518
:101C200008F090CFC81AD90AEA0AFB0A89858823E6
:101C3000D9F0AE01415F5F4F63E0C8010E94B9096E
:101C40004F85588969897A894C565D4F6F4F7F4F10
:101C50004C155D056E057F0508F074CF8111C1C07C
:101C6000C41AD50AE60AF70A8A85882309F46CCFD4
:101C7000BE016F5F7F4FC8010E948C098C81882351
:101C8000E9F1AE014B5E5F4F60E0C8010E94D108F0
:101C9000B82E81111CC0AE014D5E5F4F61E5C801D9
:101CA0000E945207B82E8B899C891C013324512C29
:101CB000412C04C0220C331C441C551C9A95D2F7AD
:101CC0009FEF291A390A490A590ABB20C9F08E899F
:101CD0009F89A88DB98DF801828B938BA48BB58BCE
:101CE00033CF8F81882309F4A1CF8B859C85AD8567
:101CF000BE858C569D4FAF4FBF4F8ECF312C212CC0
:101D0000AE014B5E5F4F61E0C8010E94D108B82E62
:101D10008111DDCFA6E2CA1AA2E0DA0AE108F108D1
:101D2000AD89B0E020E03FE24AE350E00E94FD2FA1
:101D30004B015C01B4EF8B0EB1E09B1EA11CB11CEA
:101D4000A8EEB3E0A70196010E94FD2F2B013C01F4
:101D5000C501B40120ED37E040E050E00E940830BA
:101D6000420E531E641E751EC501B40128EE33E0F9
:101D700040E050E00E940830C301B2010E940830E8
:101D8000220E331E21143104E1F04101B12CA12CAB
:101D9000E1E08E1A9108A108B10890E080E0B50159
:101DA000A4014427452B462B472B31F0B694A7942A
:101DB000979487940196F3CF982F88271C01280CBD
:101DC000391CA10161E7C8010E941803B82E8111D6
:101DD0007ECFF801E153FF4FC082D182E282F382CD
:101DE00076CFB82EB1CE7F928F929F92AF92BF9254
:101DF000CF92DF92EF92FF920F931F93CF93DF93D7
:101E00001F92CDB7DEB77C015B016A01722E4C01D7
:101E100083EE881A8EEF980AF4011081198241E04E
:101E200061E0C7010E943A0381114AC060E4C70122
:101E30000E946E09811144C0F1E07F121AC000E0D7
:101E400021E0AE014F5F5F4FB501C7010E941D0D3C
:101E5000882389F00F90DF91CF911F910F91FF9010
:101E6000EF90DF90CF90BF90AF909F908F907F903A
:101E70000895F501108242E061E0C7010E943A0333
:101E8000811124C060E0C7010E946E0981111EC04B
:101E9000F1E07F1218C001E020E0A601BE016F5FF3
:101EA0007F4FC7010E941D0D8111D4CF412F61E0EA
:101EB000C7010E943A038111CDCFF4011083CACF2C
:101EC000F5011082C7CFF6011082F0CFF601F9CFED
:101ED0002F923F924F925F926F927F928F929F923A
:101EE000AF92BF92CF92DF92EF92FF920F931F9328
:101EF000CF93DF93CDB7DEB7E7970FB6F894DEBF89
:101F00000FBECDBF7C016B01DC0150961C9241E0FD
:101F100060E80E943A0341E06FEFC7010E943A0374
:101F200040E060E0C7010E943A03F701E95DFE4F1F
:101F3000408161E9C7010E943A0341E060E0C701C6
:101F40000E943A0340E06FEFC7010E943A0340E06D
:101F500060E8C7010E943A0341E060E0C7010E94C7
:101F60003A03811116C091E09983812C912C540180
:101F7000BFEF8B1A9B0AAB0ABB0A998190FF2AC05C
:101F80008111A9C2E8EC8E169104A104B104D1F428
:101F900089EFE7960FB6F894DEBF0FBECDBFDF9195
:101FA000CF911F910F91FF90EF90DF90CF90BF9056
:101FB000AF909F908F907F906F905F904F903F90E9
:101FC0002F900895AE014F5F5F4F60E0C7010E9400
:101FD0008A08CECFF8EC8F169104A104B104C1F2A7
:101FE0008111D7CFC7010E9428098111D2CF83E088
:101FF000F701E15EFE4F80830CE010E020E030E06E
:10200000AE01465E5F4F64E1B29680810E94FC059E
:10201000892B11F08CEEBDCFD60156961C925697A7
:10202000F60110821182128213826CA170E0762F69
:1020300066272DA1620F711D14961D921D921D928F
:102040001C921797E9A1F0E0FE2FEE27FF0F4F013A
:10205000B12CA12C1C968D929D92AD92BC921F9793
:102060008BA190E0982F8827990F8C0130E020E019
:1020700050960D931D932D933C9353970C8D10E028
:10208000102F00272D8D020F111D55961C930E93B6
:1020900054977A8CD701A75CBE4F2D913C91119734
:1020A0005B976C90283EB3E03B07D9F1629FC0017B
:1020B000639F900D729F900D11248C509E4F68EE7F
:1020C00073E00E946132D7015D962D903D904D9056
:1020D0005C9090975A962C91222319F1029DA001B1
:1020E000039D500D129D500D1124452F5527E417C7
:1020F000F50741F460EE7AE8662009F4DEC068EB8B
:1021000072E212C09F01DB010E942A301F012501EB
:10211000241A350A41085108A20191010E94083091
:10212000B901662009F4C9C0CB01969587959695AB
:102130008795D60119969C938E9318976295660F92
:10214000660F607C57966C931FA61EA6872D90E0A5
:102150001C0173E0359427947A95E1F73FAA2EAAE3
:102160002EA92F7028AB222309F4ACC08EA98D7044
:10217000853009F4AAC031E039AB822F8C5084300D
:1021800008F019AA41E06FEFC7010E943A038111DC
:1021900007C0AE01425D5F4F66EBC7010E94520768
:1021A0009EA520E0392F330F1901512C412C2AAA6A
:1021B0003BAA4CAA5DAA811105C040E06FEFC701A0
:1021C0000E943A03F701EE5CFE4F2AA83BA84CA8F8
:1021D0005DA8208231824282538281116FC1D70172
:1021E00095962C909597222009F47AC0F6014484A4
:1021F0005584668477845A968C9120E030E0A9015A
:10220000882399F0A489B589F701258D368D478DEE
:1022100050A10E94FD2F9B01AC0120583F4F4F4F12
:102220005F4F232F342F452F5527240D351D461D75
:10223000571DA8EEB3E00E94FD2F70588F4F9F4F9F
:10224000BC0188279927F701E65DFE4F672B682BB5
:10225000692BF1F58EEA97E8AFE8B2E080839183CD
:10226000A283B3839EEA492E97E8592E9FE8692EF0
:1022700092E0792ED6011B961C921E921A97AE01FF
:10228000465D5F4F70E060E0C7010E947F074AA58E
:102290005BA56CA57DA5411551056105710539F05A
:1022A00033243394441555056605770508F0312C21
:1022B0008823B9F0612C512C05C1F6017187608724
:1022C000178A42CF41E049AB5DCF51E059AB5ACFBD
:1022D0001082118212821382412C512C3201CACFFA
:1022E000312CF70157A0552009F4C5C0AE014A5D55
:1022F0005F4F62E070E0C7010E947F07282F4EA168
:102300005FA168A579A5411551056105710559F0D1
:10231000772473948AA99BA9ACA9BDA9481759072A
:102320006A077B0708F0712C612C90E0211130C006
:10233000D70198966C90662009F4A3C00115110589
:1023400009F49BC09A2D892D782D6627980150E0BD
:1023500040E00E94083049015A01AE014F5F5F4FD3
:1023600063E070E0C7010E947F0749815A816B8159
:102370007C81411551056105710531F091E08416AC
:102380009506A606B70608F090E0882309F47AC0FF
:10239000D6011B961C921E921A9780E0211002C053
:1023A00033243394F70136A133A6F8A9F43009F4A5
:1023B000B0C021E0311120E0D7019C962C93511040
:1023C00002C077247394F70175A6611001C091E0F3
:1023D000D7019E969C93F601808F1701FAE42F0E89
:1023E000311C99E1F101DE01119601900D929A954F
:1023F000E1F7D6011896ED91FC91199757969C91AB
:1024000057971A966D917C911B971C964D905D90F5
:102410006D907C901F9750968D909D90AD90BC9044
:10242000539754964D915C91559714960D911D912B
:102430002D913C9117970D831E832F833887FA8740
:10244000E9877C876B874D865E866F86788A898A66
:102450009A8AAB8ABC8A5E8B4D8B988F898F89E173
:10246000FE013196D10101900D928A95E1F7C701E5
:102470000E949E088ECD712C5BCF812C912C540133
:102480006CCF90E0B9A9B13001F188A981508330B7
:10249000F0F0E8A9E63039F1E93029F18EA98D7024
:1024A0008830B9F0F1E07F16A1F0E43049F19130C5
:1024B00011F13F1611F1932D732C6ACF612C512C21
:1024C000212C312C90E0712C63CF8FEF67CF85E00A
:1024D00065CF83E063CFB8EC8B169104A104B104FF
:1024E00009F057CD55CD84E021105CCFF70136A11E
:1024F00021E023A75ECF82E0F7CF792E81E0F4CFF1
:1025000082E021104FCF81E0D7019B968C93712CF4
:1025100082E021E051CFAF92BF92DF92EF92FF9223
:102520000F931F93CF93DF93CDB7DEB769970FB6A5
:10253000F894DEBF0FBECDBF8C015B017C0183EE42
:10254000E81A8EEFF80AF701D08040EC61E0C8018C
:102550000E943A03811126C0BE016F5F7F4FC80100
:102560000E94680F81111EC041E06FEFC8010E94F8
:102570003A03811117C0A50166EBC8010E945207FA
:10258000811110C040E06FEFC8010E943A03811131
:1025900009C04D2D61E0C8010E943A03811102C0BB
:1025A000F701D08269960FB6F894DEBF0FBECDBF9B
:1025B000DF91CF911F910F91FF90EF90DF90BF902F
:1025C000AF9008952F923F924F925F926F927F92B9
:1025D0008F929F92AF92BF92CF92DF92EF92FF9233
:1025E0000F931F93CF93DF93CDB7DEB7AC970FB6A2
:1025F000F894DEBF0FBECDBF1C017FA36EA359A709
:1026000048A71F82188619861A861B861C861D8677
:102610001E86198A1A8AFC01E85DFE4F20813181ED
:10262000398F288FAC014F5E5E4F5B8F4A8FDA0186
:102630001C922C01BEEE4B1ABEEF5B0AF201108217
:102640003C01FDEE6F1AFEEF7F0AD3011C92FC01E4
:10265000EC5EFE4F1082319610823196108241E07E
:102660006FEF0E943A038B8B81111DC140E06FE434
:10267000C1010E943A038B8B811115C14CE26EE4BB
:10268000C1010E943A038B8B81110DC140E06FEFB5
:10269000C1010E943A038B8B811105C144EB66EBAB
:1026A000C1010E943A038B8B8111FDC040E060E8BC
:1026B000C1010E943A038B8B8111F5C020E0AE016D
:1026C0004E5E5F4FBE016F5E7F4FC1010E94F30EF1
:1026D0008B8B8111E8C01F82188619861A86F1013A
:1026E000E95EFE4FFD8FEC8F9E01295F3F4F490150
:1026F000A3E0AA2EB12CC12CD12CE12CF12C870106
:102700002A8D3B8DAF0160E0C1010E9433068B8BA7
:102710008111C9C04F81588569857A854C8B5D8B45
:102720006E8B7F8BBE01615F7F4FC1010E948B1258
:102730008B8B8111B8C08F859889688D798D6817CA
:10274000790708F0D3C0AA8DBB8D1C92F2011082CC
:10275000D3011C92329610823196108231961082EB
:102760008C899D89AE89BF898C549F4FAF4FBF4FD5
:10277000E6E0B695A79597958795EA95D1F7880FE6
:10278000991F880F991F86509E4FFC01808191816F
:10279000A281B381892B8A2B8B2B91F42C893D89C3
:1027A0004E895F892C3231054105510548F42F5F70
:1027B0003F4F4F4F5F4F2C8B3D8B4E8B5F8BD0CF5E
:1027C000AE01495F5F4F4A0173E0A72EB12CC12CC7
:1027D000D12CEC88FD880E891F892A8D3B8D4C8D6C
:1027E0005D8D61E0C1010E943306811159C16F8185
:1027F000788589859A856C8B7D8B8E8B9F8BBE01AE
:10280000615F7F4FC1010E948B12811149C18F8589
:102810009889A88DB98D11E063E0462E512C612C6A
:10282000712CA817B90720F010E0412C512C32016F
:10283000C12CD12C7601C39460C0D501C40101968E
:10284000A11DB11D8C8B9D8BAE8BBF8B86E0EAA545
:10285000FBA5ACA5B02F01900D928A95E1F74E8CA7
:102860005F8C68A079A04AA35BA36CA37DA36FC013
:102870004E8C5F8C68A079A0AEA1BFA14D925D92F5
:102880006D927C921397E8A5F9A51083F101EC5F96
:10289000FE4F81E0808332978C918083A8A5B9A5F3
:1028A0008C91319680838B89AC960FB6F894DEBFFD
:1028B0000FBECDBFDF91CF911F910F91FF90EF9091
:1028C000DF90CF90BF90AF909F908F907F906F9050
:1028D0005F904F903F902F900895BEECBB8BE3CF5D
:1028E000EEECEB8BE0CFFEECFB8BDDCF10E0412C70
:1028F000512C3201C12CD12C76018F859889288DDD
:10290000398D8217930708F0B7CF46E0EA8DFB8D2B
:102910009E012F5F3F4FD90101900D924A95E1F73B
:10292000E88DF98D8E1B9F0BAC0170E060E04AA32F
:102930005BA36CA37DA353E0452E512C612C712C1D
:10294000B1016F5E7E4F7BA76AA72CA7032F9E0164
:10295000255F3F4F4C895D896E897F898C8D9D8D68
:102960000E9443018B849C84AD84BE847FEF8716D4
:102970009706A706B70609F4B0CFD301C2010196A6
:10298000A11DB11D8E8F9F8FA8A3B9A3D501C4012E
:102990008C549F4FAF4FBF4F36E0B695A795979594
:1029A00087953A95D1F7880F991F880F991F865000
:1029B0009E4F11E0FC0180819181A281B381892B1E
:1029C0008A2B8B2B09F410E0812F90E0B0E0A0E07F
:1029D0008C159D05AE05BF0509F082CFD501C40158
:1029E00023E0B695A795979587952A95D1F7B501D8
:1029F000A401477055276627772786309105A105E2
:102A0000B10508F070CFEA8DFB8DE80FF91F21E0CA
:102A100030E001C0220F4A95EAF78081822B808343
:102A20006A8D7B8DC1010E945A03811139C0BE019C
:102A3000615F7F4FC1010E948B12811131C08F8570
:102A40009889288D398DAC01421B530B821793074F
:102A500011F450E040E070E060E0A88DB98DA81757
:102A6000B90708F0EACE8AA19BA1ACA1BDA1841749
:102A70009507A607B70708F0FBCEBE016F5F7F4F33
:102A8000C1010E945A0396E0FE013196D101AF5E6A
:102A9000BE4F01900D929A95E1F7882309F4ECCE90
:102AA0008B8B01CFFB0101900020E9F73197AF013B
:102AB000461B570BDC01ED91FC910280F381E02D68
:102AC00009948F929F92AF92BF92EF92FF920F93D1
:102AD0001F93CF93DF93CDB7DEB7A1970FB6F894CE
:102AE000DEBF0FBECDBF7C01FA01CB0119A222309F
:102AF00008F42AE08E010F5D1F4F822E912CB12C1D
:102B0000A12CBF01A50194010E940830F901CA015E
:102B10006A300CF5605DD8016E938D01232B242B58
:102B2000252B79F790E080E0109721F0BD01C701D7
:102B30000E945215A1960FB6F894DEBF0FBECDBF0E
:102B4000DF91CF911F910F91FF90EF90BF90AF90C9
:102B50009F908F900895695CDECF8F929F92AF9285
:102B6000BF92CF92DF92EF92FF920F931F93CF937A
:102B7000DF937C01EB016C0182E0C80ED11C4701A0
:102B8000E5E08E0E911C10E000E0F60141916F012E
:102B900050E070E060E02AE0CE010E9461155C0127
:102BA000E881F9810190F081E02D6EE2CE01099576
:102BB0008A0D9B1D080F191FC814D90431F7F7019E
:102BC000458150E070E060E02AE0CE010E9461158E
:102BD000800F911FDF91CF911F910F91FF90EF9088
:102BE000DF90CF90BF90AF909F908F9008954F92BD
:102BF0005F926F927F928F929F92AF92BF92CF928D
:102C0000DF92EF92FF920F931F93CF936B017C01A2
:102C1000742EAC019B010E94373264E372E0811193
:102C200026C046015701E894B7F82FEF3FEF4FE772
:102C30005FE7C501B4010E94373281110CC02FEF4C
:102C40003FEF4FE75FE7C501B4010E94D92E68E36B
:102C500072E0181664F02FEF3FEF4FE75FE4C70113
:102C6000B6010E94E0311816ACF46CE372E08DE01E
:102C700097E0CF911F910F91FF90EF90DF90CF9051
:102C8000BF90AF909F908F907F906F905F904F908C
:102C90000C9452152FEF3FEF4FE75FECC701B601E1
:102CA0000E94D92E87FDE1CF20E030E0A901C701C5
:102CB000B6010E94D92E10E000E087FF0AC06DE245
:102CC0008DE097E00E945C048C01F7FAF094F7F82D
:102CD000F094C0E060E070E080E09FE37C1641F09B
:102CE00020E030E040E251E40E941831CF5FF6CF9F
:102CF000A70196010E943A302B013C010E948A31C3
:102D00004B015C012AE0BC01A4018DE097E00E9428
:102D100061157C01E00EF11ECC23D1F1C501B40197
:102D20000E94DE2E9B01AC01C301B2010E9439302A
:102D30004B015C016EE28DE097E00E945C04E80EBE
:102D4000F91EC15028F120E030E040E251E4C50115
:102D5000B4010E943F2F2B013C010E948A314B019C
:102D6000B12CA12C2AE0B501A4018DE097E00E94CE
:102D70006115E80EF91EC501B4010E94DE2E9B010B
:102D8000AC01C301B2010E9439304B015C01D9CFC3
:102D9000C701CF911F910F91FF90EF90DF90CF90DF
:102DA000BF90AF909F908F907F906F905F904F906B
:102DB0000895CF93DF9300D000D0CDB7DEB70E9447
:102DC000BA221C828091A406882309F450C0813065
:102DD00009F464C01B8280E197E22B812F5F2B8373
:102DE0000197D9F76FE0CE0101960E94A5051C82DC
:102DF0002091B006213009F0C7C08091B6069091AD
:102E0000B7068436910509F48FC0883C910509F412
:102E10008DC0C29711F483E08C838C812091B2061F
:102E20003091B3062430310509F482C028303105D1
:102E300009F481C084602230310509F07AC08C81A8
:102E40002091B4063091B506203A91E0390709F493
:102E5000C7C008F07CC02A31310509F4BDC008F0B4
:102E60006CC02D30310509F48DC080648CC0109287
:102E70008904109288041092D2041092F4040E94E3
:102E8000CA0287E192E090937A048093790488E102
:102E900092E090937804809377049CCF1FB7F894C6
:102EA00080917204811124C0E9ECF0E08491EDED91
:102EB000F0E09491E82FF0E0EE0FFF1FEB54FF4F8E
:102EC000A591B491EC91E92321F461E08AE00E949C
:102ED000CB018AE00E949F008CB580618CBD8CB5CF
:102EE00080648CBD8DE00E949F008BE00E949F005B
:102EF000809172048F5F809372041FBF8CB58C7FAA
:102F00008CBD8DB58E7F8DBD8CB58F7D8CBD8CB508
:102F10008C608CBD8091A6060E949F0061E080912C
:102F2000A6060E94CB0156CF82E076CF2C8375CFC8
:102F300088608C8384CF8C60FCCF2433310509F406
:102F40004DC0203D310509F090CF80651CC0223076
:102F50009DE0390709F448C058F4213493E039075B
:102F600009F440C02C37364009F07FCF80680BC091
:102F700024309AE13907D1F12231344309F075CF79
:102F8000806B01C080618C836C8180E10E9477033B
:102F900063E1CE0104960E94A5058C818F778C8316
:102FA0009091B106913011F480688C836C8183E13B
:102FB0000E9477031C828091A7068130F1F58091F1
:102FC000A8069091A906853F9105F1F088F48D3708
:102FD0009105C1F08CE017C08062D5CF8063D3CF5C
:102FE0008066D1CF8067CFCF8069CDCF806ACBCFCD
:102FF000843F21E0920709F43FC1883E934051F796
:1030000088E001C082E08C838C812091AA063091F7
:10301000AB06203D310509F444C108F02FC12A3127
:10302000310509F438C12433310509F436C12D3096
:10303000310509F034C180618C836C8181E10E948B
:1030400077036FE0CE0101960E94A50568E2CE01EC
:1030500001960E942E05009761F0059709F027C19F
:103060008091C1069091C20601969093C20680930A
:10307000C10609811A816091B2067091B3067695F6
:10308000679590E080E00E94DE2E6B017C01B80124
:10309000110F880B990B0E94E02E23E23BED49E7CC
:1030A0005DE30E943F2F9B01AC01C701B6010E9466
:1030B0003F2F20E030E04AE754E40E9418316B01D2
:1030C0007C016AE2CE0101960E942E05009761F014
:1030D000059709F0F6C08091C1069091C20601964D
:1030E0009093C2068093C10609811A816091B2064D
:1030F0007091B3067695679590E080E00E94DE2E91
:103100004B015C01B801110F880B990B0E94E02E56
:1031100023E23BED49E75DE30E943F2F9B01AC01B9
:10312000C501B4010E943F2F20E030E04AE754E49B
:103130000E9418314B015C016CE2CE0101960E94A5
:103140002E05009761F0059709F0C5C08091C10672
:103150009091C20601969093C2068093C1060981A0
:103160001A816091B2067091B3067695679590E0EA
:1031700080E00E94DE2E2B013C01B801110F880B6C
:10318000990B0E94E02E23E23BED49E75DE30E94AC
:103190003F2F9B01AC01C301B2010E943F2F20E0F1
:1031A00030E04AE754E40E9418312B013C01C7018A
:1031B000B6019058A30192010E94B93023EA3CE481
:1031C00045E652E40E943F2F6093730470937404A9
:1031D0008093750490937604A7019601C701B60108
:1031E0000E943F2F6B017C01A3019201C301B20138
:1031F0000E943F2F9B01AC01C701B6010E943A30EB
:103200000E94F3319B01AC01C501B4010E94B930A9
:1032100023EA3CE445E652E40E943F2F42E00E944C
:10322000F71560E472E08DE097E00E94521560911E
:10323000730470917404809175049091760442E057
:103240000E94F71560E472E08DE097E00E9452154D
:1032500060917B0470917C0480917D0490917E0448
:1032600042E00E94F71562E472E08DE097E00E9470
:1032700052150E94B327EACE84E0C5CE213493E0F4
:10328000390789F02C3796E0390779F0203A314038
:1032900031F48066D1CE8062CFCE8063CDCE8064A3
:1032A000CBCE8065C9CE8067C7CE8068C5CE809101
:1032B000C3069091C40601969093C4068093C306FA
:1032C000D8CE8091C3069091C40601969093C4060F
:1032D0008093C30609CF8091C3069091C4060196DE
:1032E0009093C4068093C3063ACFCF93DF93CDB7B4
:1032F000DEB7C355D1090FB6F894DEBF0FBECDBF00
:1033000010928904109288041092D2041092F4044E
:103310000E94CA0287E192E090937A048093790434
:1033200088E192E09093780480937704E091990685
:10333000F0919A06EF5BFE4F89E28083E091990657
:10334000F0919A06EE5BFE4F81E08083E091990652
:10335000F0919A06ED5BFE4F20E931E03183208346
:10336000E091A206F091A3068483158286838EEFF6
:1033700091E1A0E0B0E080839183A283B38321E058
:103380004EEF69E884E595E00E94F307811106C0DD
:1033900040E068E884E595E00E943A03AE01455CB0
:1033A0005F4F60EC84E595E00E948A081092330636
:1033B00088EE93E090938E0680938D0680E991E0ED
:1033C0009093900680938F0685E89BE6A1E0B0E09D
:1033D0008093910690939206A0939306B0939406DF
:1033E00084EA90E7A9E0B0E080931C0690931D0664
:1033F000A0931E06B0931F061092710510927205DD
:103400001092730510927405CE0101962C01BC0137
:1034100084E595E00E945E0B182F81110AC0198285
:103420001A828AE3F201A4E6B5E001900D928A9532
:10343000E1F784E690E0909376068093750684E841
:1034400093E0909378068093770684EF91E09093D1
:103450007A068093790680E09AE090937D068093C7
:103460007C0681E080938C0641E060E884E595E08D
:103470000E943A03F82E41E06FEF84E595E00E9448
:103480003A03F82AF12A40E060E084E595E00E94E2
:103490003A03F82AAE014F5B5F4F61E984E595E09E
:1034A0000E948A08F82A22968FAD229780937B0685
:1034B00041E060E084E595E00E943A03F82A40E0AC
:1034C0006FEF84E595E00E943A03F82A40E060E857
:1034D00084E595E00E943A03F82A10E000E0F1103C
:1034E000F8C141E0B80184E595E00E943108F82E6A
:1034F0000F5F1F4F0630110591F78111EAC110923D
:103500007B0510927C0540E064E070E084E595E086
:103510000E943108F82E8111DCC140E065E070E0C6
:1035200084E595E00E943108F82E8111D2C180E037
:1035300090E0A2E1B0E08093850590938605A0938A
:103540008705B093880580917A058111B7C180E025
:1035500090E4A0E0B0E08093890590938A05A09361
:103560008B05B0938C0580E090E0A3E2B0E08093FF
:103570008D0590938E05A0938F05B09390051092C2
:1035800091051092920510929305109294058FEF79
:10359000809371064FEF61E084E595E00E943A0365
:1035A000F82E81E080937306F11093C110925806B3
:1035B0006090990670909A068AE3F20111928A95BA
:1035C000E9F72B961FAE1EAE2B972E961FAE2E97A9
:1035D0002D961FAE2D9729961CAE1DAE1EAE1FAEAA
:1035E0002997F301E152FF4F1081173009F4EFC022
:1035F00041E060E8C3010E943A03F82E41E06FEF1A
:10360000C3010E943A03F82A40E060E0C3010E942F
:103610003A03F82A46E06FEFC3010E943A03F82A02
:10362000AE01455B5F4F63E8C3010E948A08F82A38
:103630002C964FAD2C97446063E8C3010E943A0377
:10364000F82A47E06FEFC3010E943A03F82A41E0ED
:1036500061E8C3010E943A03F82A0E941B01F82A7C
:1036600041E060E8C3010E943A03F82AF12FF170AB
:10367000CF2ED12C00E010FD5CC04BE664E9C30105
:103680000E943A03082FC3010E94F008802BF82AF9
:10369000AE014F5B5F4F60E9C3010E941207F82A39
:1036A00025968CAD9DADAEADBFAD2597092F0F779B
:1036B00097FBDD24D0F844E264E9C3010E943A0399
:1036C000F82AC3010E94F008F82AAE014F5B5F4F51
:1036D00060E9C3010E941207F82A22968FAD229753
:1036E00023969FAD239724962FAD249725963FAD23
:1036F00025973BAF2CAF9DAF8EAF45E264E9C30188
:103700000E943A03F82AC3010E94F008F82AAE0189
:103710004F5B5F4F60E9C3010E941207F82A2496AD
:103720008FAD249725969FAD25979FAF21968FAF9C
:10373000219740E061E8C3010E943A03F82A46E07D
:103740006FEFC3010E943A03F82AAE01455B5F4F59
:1037500063E8C3010E948A08F82A2C964FAD2C9783
:103760004B7F63E8C3010E943A03F82A41E06FEF00
:10377000C3010E943A03F82A41E060E0C3010E94BD
:103780003A03F82A40E06FEFC3010E943A03F82A97
:1037900040E060E8C3010E943A038F29C1F4C110E0
:1037A00011C0F301EE5FFE4F00833196D082DE013F
:1037B000DB967496C301835E9E4F2D9121938E17E5
:1037C0009F07D9F7F301E152FF4F11601083F30116
:1037D000EE5FFE4F2080A22CB12CD12CC12C319653
:1037E000308081E0831508F4A6C038129DC091E2B4
:1037F000A916B104C104D10408F09DC041E06FEFE7
:10380000C3010E943A0381111AC040E06FE4C30172
:103810000E943A03811113C04CE26EE4C3010E947E
:103820003A0381110CC040E06FEFC3010E943A03DC
:10383000811105C044EB66EBC3010E943A0393017A
:103840002F5E3E4FF9011082319610823196108220
:10385000319610823196108231961082E12CF12C33
:103860008701332009F474C0D801C7018C549F4FDD
:10387000AF4FBF4FF6E0B695A79597958795FA9508
:10388000D1F7880F991F880F991F86509E4FFC0112
:1038900080819181A281B381892B8A2B8B2B09F0A6
:1038A00057C0FCE2EF16F1040105110509F450C000
:1038B0008FEFE81AF80A0F4F1F4FD6CF40E250E0C3
:1038C00064E484E595E00E941803F82E882309F447
:1038D0003ECE6CEB73E08DE097E00E94521562E4FF
:1038E00072E08DE097E00E94521597EFF91609F407
:1038F000E2C29F150CF422C3E2EEFE1609F4EDC2FB
:10390000EF150CF401C3FEECFF1609F4F2C288EDCA
:10391000F81609F4E8C29DE9F912FEC263E973E002
:10392000C2010E94B03330C3EDE0AE16B104C10451
:10393000D10408F463CFAE01445B5F4FBE016B5B03
:103940007F4FC3010E94E212F82EF110C2CF16C0C1
:10395000FE01FB964F01A301495E5E4F632DC3013B
:103960000E943306F82E8111F0CF81E0F301EC5F65
:10397000FE4F80833297208231963082F301E85CDB
:10398000FE4F80818111BBC23297C080D18030E070
:1039900020E053019FEBA91A9EEFB90A4301EDED18
:1039A0008E1AEEEF9E0AC3018F5D9E4F60969FAF09
:1039B0008EAF6097F301EB5DFE4F6296FFAFEEAF07
:1039C0006297079664969FAF8EAF649703C0ECEF43
:1039D000FE2E9101F601E20FF31F0081002309F48E
:1039E00085C0F11076CF19018FEF281A380AD60159
:1039F000A20DB31D6C910F3F09F04AC0190192E06E
:103A0000290E311CD601A20DB31D8C91613029F114
:103A100098F0623071F16330D1F6190194E0290E0B
:103A2000311C238190E0982F8827820F911D649686
:103A3000EEADFFAD64970EC0190194E0290E311C64
:103A4000238190E0982F8827820F911D6096EEAD1C
:103A5000FFAD609791838083BCCF190194E0290E5C
:103A6000311C238190E0982F8827820F911DF4014B
:103A7000F1CF190194E0290E311C238190E0982F99
:103A80008827820F911D6296EEADFFAD6297E2CF5F
:103A9000053008F09CCF190182E0280E311C90E01F
:103AA00080E0202F30E08217930774F4DF01A80F25
:103AB000B91F12964C91ABE3B0E0AC0FBD1FA80F3D
:103AC000B91F4C930196EFCF220E331E10E030E069
:103AD00020E0AE01455C5F4FF50180810E94E80265
:103AE000892B09F476CF7CEEF72E73CFF110F1CE4F
:103AF00044E06AE0C3010E943A03F82E8111E9CE46
:103B000020E04FEE64E8C3010E94F307F82E811114
:103B1000E0CE84E0F301E253FF4F8083C3010E94B3
:103B20009E08F82E8111D5CE41E06FEFC3010E94AF
:103B30003A03F82EAE01475B5F4F64E8C3010E9471
:103B40005207F82A40E06FEFC3010E943A03F82AB7
:103B500009F0BFCEF301E853FF4F2B968EAD9FAD1A
:103B60002B9724E0880F991F2A95E1F7B0E0A0E099
:103B700080839183A283B383B201C3010E945E0B51
:103B8000F82E8111A6CEAE01435B5F4F69E0C30101
:103B90000E948A08F82E81119CCE2E968FAD2E970A
:103BA00081702E968FAF2E97F301E25EFE4F8083D9
:103BB0008AE3F201D301509601900D928A95E1F7C4
:103BC000AE01435B5F4F61E0C3010E948A08F82E9B
:103BD00081117FCE8301035E1E4F2E968FAD2E97EF
:103BE000F80180831BAEAE01455C5F4F61E0C3010D
:103BF0000E948A08F82E8BADF1106BCEE82EE89467
:103C0000E4F884FF12C04E2D61E0C3010E943A0324
:103C1000F82E81115ECEF801E082F30142895389CA
:103C200064897589C3010E94760D1BAEAE01455CA7
:103C30005F4F61E0C3010E948A08F82E8BADF1103E
:103C400048CEE82EE894E2F882FF12C04E2D61E0E3
:103C5000C3010E943A03F82E81113BCEF801E082A5
:103C6000F3014289538964897589C3010E94760DE5
:103C700083E0F301E15EFE4F8083AE014F5B5F4F57
:103C800060E0C3010E94D108F82E811122CE229655
:103C90008FAD2297F301E852FF4F8083AE014F5B57
:103CA0005F4F61E0C3010E94D108F82E811111CE4F
:103CB00022968FAD2297F301ED52FF4F8083AE0124
:103CC000455C5F4F63E0C3010E94070BF82E811132
:103CD00000CE8BAD9CADADADBEADF301EC52FF4F50
:103CE00080839183A283B383AE01455C5F4F64E020
:103CF000C3010E94070BF82E8111EBCDF301E153B4
:103D0000FF4F8BAD9CADADADBEAD80839183A283E3
:103D1000B383AE014B5B5F4F8E010F5F1F4FB80146
:103D20008091990690919A060E94E212F82E8111D4
:103D3000D0CD21E0AE01455C5F4FBE016F5B7F4F90
:103D40008091990690919A060E94F30EF82E8111A7
:103D5000C0CDE0919906F0919A06108AE0919906FB
:103D6000F0919A06EE24E394E5A241E061E070E070
:103D70008091990690919A060E943108F82E81113F
:103D8000A8CDE0919906F0919A06E0A6E0919906F7
:103D9000F0919A06FD9684ED98E0A0E0B0E0808373
:103DA0009183A283B383E0919906F0919A06108AD9
:103DB000E0919906F0919A06FF24F394F5A241E070
:103DC00061E070E08091990690919A060E94310816
:103DD000811112C0E0919906F0919A06F0A6E09147
:103DE0009906F0919A06FD9684ED98E0A0E0B0E087
:103DF00080839183A283B38399E1F92EF8018F2DFB
:103E000011928A95E9F78FB7F89440918404509104
:103E1000850460918604709187048FBFB8018091FA
:103E2000990690919A060E94680F8FB7F894409176
:103E300084045091850460918604709187048FBF3B
:103E400069857A8590E080E00E94DE2E60937B0495
:103E500070937C0480937D0490937E040E94B3272A
:103E6000CDCF6FE572E0C2010E94B0338DC061E733
:103E700072E0C2010E94B03387C061E872E0C20103
:103E80000E94B03381C06AE972E0C2010E94B0337F
:103E90007BC06EEA72E0C2010E94B03375C060ED73
:103EA00072E0C2010E94B0336FC06FED72E0C201D8
:103EB0000E94B03369C068EF72E0C2010E94B03363
:103EC00063C06BE173E0C2010E94B0335DC064E384
:103ED00073E0C2010E94B03357C06CE473E0C201CA
:103EE0000E94B03351C062E673E0C2010E94B03359
:103EF0004BC069E773E0C2010E94B03345C081E066
:103F0000C82E81E0D82E43CDE4EFFE1611F2EF1556
:103F10004CF0FCEEFF16D9F269EA73E0C2010E9490
:103F2000B03332C085EFF81661F296EFF912F4CF94
:103F300069E073E0C2010E94B03326C0EBEFFE16C9
:103F400009F4A1CFEF156CF0F9EFFF1609F4A7CF34
:103F5000FF150CF0AACF64EC72E0C2010E94B033EE
:103F600013C08DEFF81609F482CFF8160CF485CF44
:103F70009EEFF91609F475CFEFEFFE12CDCF65E491
:103F800072E0C2010E94B033FFCF00E010E08091E8
:103F90000B04882309F10FB6F8940F92E0910A05FB
:103FA000F0910B05C681D781CE0102960E94F522C1
:103FB00080912B05815080932B0580910B048150BB
:103FC00080930B040F900FBE8F89988D0E948729D4
:103FD000CE010E948729DBCF80912F05823010F01F
:103FE0000E9463240115110591F20E942D04CFCF88
:103FF0000F931F938DE00E949F00EDE0F7E0A089F2
:10400000B18982E08C93A485B5851C92A685B7857D
:1040100080E18C93108EA489B58986E08C93A28967
:10402000B3898C9180618C93A289B3898C918860CB
:104030008C93A289B3898C9180688C930288F389D0
:10404000E02D80818F7D808382E00E949F0061E06F
:1040500082E00E94CB0160E082E00E94CB0110E090
:1040600000E022E040E052E06DED73E089ED96E182
:104070000E94822B23E040E052E061EE73E085E78E
:1040800099E10E94822B1F910F9108951F920F9228
:104090000FB60F9211242F933F938F939F93AF935B
:1040A000BF938091840490918504A0918604B0917F
:1040B00087043091830423E0230F2D3758F50196B0
:1040C000A11DB11D209383048093840490938504E3
:1040D000A0938604B093870480917F04909180041C
:1040E000A0918104B09182040196A11DB11D80931D
:1040F0007F0490938004A0938104B0938204BF91C5
:10410000AF919F918F913F912F910F900FBE0F9084
:104110001F90189526E8230F0296A11DB11DD2CF3E
:104120001F920F920FB60F9211242F933F934F932C
:104130005F936F937F938F939F93AF93BF93EF930F
:10414000FF938091B900887F803609F44AC0F0F56A
:10415000883209F4A7C018F5803109F49BC0B8F47F
:10416000882309F4F9C0883009F494C0FF91EF91D5
:10417000BF91AF919F918F917F916F915F914F917F
:104180003F912F910F900FBE0F901F90189588317F
:1041900009F488C0803251F78093CE0414C0803473
:1041A00009F49DC040F48033B9F38833F9F6809365
:1041B000CE0485ECB0C0803509F485C0883509F49B
:1041C00096C0883499F60E943C02D0CF883909F411
:1041D0008CC038F5883729F050F4883611F08037D4
:1041E00029F683E08093D0041092710457C0883878
:1041F00009F47BC0803919F0803809F0B7CF80917D
:104200007104803208F071C0E091710481E08E0F7A
:10421000809371048091BB00F0E0EF5AFB4F8083E4
:104220003DC0803B39F0E0F4803A09F479C0883A27
:1042300009F09CCF84E08093D00410925004109237
:104240004F04E0917904F0917A04099580914F042C
:1042500081110FC081E080934F0410922F0409C098
:10426000803C09F4A6CF883C09F4A3CF883B09F031
:104270007DCFE091500481E08E0F80935004F0E0F8
:10428000E15DFB4F80818093BB0090915004809151
:104290004F0429C08091AB048093BB0085EC8093D0
:1042A000BC0064CF9091CD048091CC04981758F550
:1042B000E091CD0481E08E0F8093CD04F0E0E455D1
:1042C000FB4F8081E9CFE091CD0481E08E0F809398
:1042D000CD048091BB00F0E0E455FB4F80839091CA
:1042E000CD048091CC049817C8F285E8D8CFE0912E
:1042F000CD0481E08E0F8093CD048091BB00F0E06F
:10430000E455FB4F80838091CF0481115CCF81E025
:104310008093AA0484EA8093BC001092D00426CF34
:1043200085EC8093BC001092D0048091710480329F
:1043300030F4E0917104F0E0EF5AFB4F108260918D
:10434000710470E0E0917704F091780481E594E0E5
:104350000995109271040ACF1092CE0434CF1F92A7
:104360000F920FB60F9211242F933F934F935F93A9
:104370006F937F938F939F93AF93BF93EF93FF932D
:1043800080910F0490911004A0911104B091120437
:10439000892B8A2B8B2BC1F190910E048091000008
:1043A00089278093000080910F0490911004A091C0
:1043B0001104B0911204181619061A061B069CF473
:1043C00080910F0490911004A0911104B0911204F7
:1043D0000197A109B10980930F0490931004A09351
:1043E0001104B0931204FF91EF91BF91AF919F918F
:1043F0008F917F916F915F914F913F912F910F908E
:104400000FBE0F901F90189580910001E6E9F0E033
:10441000E4919FEF90930001E13051F030F0E230F1
:1044200069F060E00E94CB01DECF10926E00F9CF00
:1044300090916F009D7F90936F00F3CF90917000EB
:104440009D7F9093700091E09093B0009091B100A7
:10445000987F94609093B1001092B300E2CF1F92C6
:104460000F920FB60F9211242F933F934F935F93A8
:104470006F937F938F939F93AF93BF93EF93FF932C
:104480008DE097E00E943A04FF91EF91BF91AF91C8
:104490009F918F917F916F915F914F913F912F915C
:1044A0000F900FBE0F901F9018951F920F920FB68E
:1044B0000F9211242F938F939F93EF93FF93E0918B
:1044C0001D07F0911E078081E0912307F0912407DA
:1044D00082FD1BC09081809126078F5F8F73209192
:1044E0002707821741F0E0912607F0E0E35FF84FDD
:1044F000958F80932607FF91EF919F918F912F9138
:104500000F900FBE0F901F9018958081F4CFFC0183
:10451000DB010FB6F8940F9240912C0550912D05B8
:104520002D913C9111972F3F3207E1F081819281CB
:1045300060912E057081761719F048175907C0F45D
:10454000481B590B4217530788F4241B350B2D9336
:104550003C9380912E05808380912C0590912D05B0
:104560009283818380E00F900FBE08951D921C926C
:1045700081E0F9CF0FB6F8940F9280912C059091BD
:104580002D050F900FBE08958091F5048F5F8093E5
:10459000F50408950FB6F8940F92FC01928D0F90D8
:1045A0000FBE81E0911180E00895CF93DF939C01CD
:1045B000FB01DC011196CD91DC91D383C2838C8108
:1045C0009D81958384838C819D81DC0113967C93EE
:1045D0006E9312977D836C8331872087F9018081E8
:1045E0008F5F8083DF91CF910895CF93DF93FC019C
:1045F000A085B1858281938124813581EC013D8341
:104600002C83C481D5819B838A8311968D919C9143
:1046100012978E179F0721F41296DC93CE93119771
:10462000118610868C9181508C938C91DF91CF9163
:1046300008950F931F93CF93DF93DC011596ED91AF
:10464000FC91C681D7818E01045F1F4FC8010E9473
:10465000F5228091F504811125C00A501109C80185
:104660000E94F5228E8990915305981710F480933B
:104670005305B9E08B9FC0011124B801815D9A4FA9
:104680000E94D522E091FC03F091FD039E8986896A
:10469000891760F481E080930A04DF91CF911F9124
:1046A0000F910895B8018EE095E0EACF80E0F5CF54
:1046B000EF92FF920F931F93CF93DF93EC010FB60E
:1046C000F8940F921E8D7C0181E1E80EF11C01E04F
:1046D00011165CF48989882341F0C7010E941923CF
:1046E000811100930A041150F3CF8FEF8E8F0F903A
:1046F0000FBE0FB6F8940F921D8D7E0188E0E80E74
:10470000F11C01E011165CF48885882341F0C70193
:104710000E941923811100930A041150F3CF8FEFE7
:104720008D8F0F900FBEDF91CF911F910F91FF9052
:10473000EF9008950F931F93CF93DF938C01FB01AC
:1047400080819181D80113968F3F9807F1F4E80199
:10475000AF81B88512968D919C9113979383828334
:10476000EC01FD83EC83B583A4831396FC93EE9355
:10477000129711870087F80180818F5F8083DF9116
:10478000CF911F910F910895D90112962D913C91CF
:104790001397E9014881598184179507A8F7DACF63
:1047A000FC0173836283918780874617570790F0D7
:1047B000421B530B8485958548175907C8F4BF01E0
:1047C0006E5F7F4F80911304909114040E949A238E
:1047D00080E008954217530718F46217730740F4F6
:1047E000BF016E5F7F4F8091150490911604EECF4C
:1047F00081E00895FF920F931F93CF93DF93EC0115
:10480000F62E00912C0510912D058091FC039091BE
:10481000FD0302960E94F522CF3FDC0789F4FF20BA
:1048200079F06091FC037091FD036E5F7F4F8CEF18
:1048300094E0DF91CF911F910F91FF900C94D522BE
:10484000C00FD11FE091FC03F091FD03D383C2831D
:104850006091FC037091FD03C017D10768F480914B
:10486000F8049091F9046E5F7F4FDF91CF911F9113
:104870000F91FF900C949A238091FA049091FB047D
:104880006E5F7F4F0E949A2380912B0490912C049D
:10489000C817D90720F4D0932C04C0932B04DF91C0
:1048A000CF911F910F91FF900895FC010396928381
:1048B00081832FEF3FEF3483238396838583908713
:1048C0008783108208950F920FB6F8940F921F926B
:1048D00011242F923F924F925F926F927F928F920C
:1048E0009F92AF92BF92CF92DF92EF92FF920F937F
:1048F0001F932F933F934F935F936F937F938F9368
:104900009F93AF93BF93CF93DF93EF93FF93A091C8
:10491000FC03B091FD030DB60D920EB60D92809181
:10492000F504882321F081E080930A045FC010928F
:104930000A04A091FC03B091FD03E091FC03F09107
:10494000FD032D913C918789908D82179307A8F0E4
:104950008091FC039091FD038091FC039091FD03F5
:10496000259A2D9A2FEF87EA91E6215080409040BA
:10497000E1F700C000001D9AF5CF2091530589E0B2
:10498000422F50E0849FF001859FF00D1124E15DDE
:10499000FA4F9081911102C02150F2CFA181B281D2
:1049A00012960D90BC91A02DB283A183289FC001C7
:1049B00011248E5C9A4FA817B90729F412968D918D
:1049C0009C919283818389E0849FF001859FF00D03
:1049D0001124E15DFA4F0180F281E02D86819781FB
:1049E0009093FD038093FC0320935305A091FC0357
:1049F000B091FD03CD91CDBFDD91DEBFFF91EF9171
:104A0000DF91CF91BF91AF919F918F917F916F91E6
:104A10005F914F913F912F911F910F91FF90EF90D8
:104A2000DF90CF90BF90AF909F908F907F906F90CE
:104A30005F904F903F902F901F900F900FBE0F9060
:104A400008957F928F929F92AF92BF92CF92DF9202
:104A5000EF92FF920F931F93CF93DF930FB6F894CB
:104A60000F928091F50481508093F5048091F504B4
:104A7000882389F080E00F900FBEDF91CF911F91C6
:104A80000F91FF90EF90DF90CF90BF90AF909F90ED
:104A90008F907F90089580912B05882359F3D0E063
:104AA000C0E029E0E22EFF24F39480910E058823D4
:104AB00051F1E0911305F0911405C681D781CE0123
:104AC0000C960E94F5228E010E5F1F4FC8010E94B6
:104AD000F5228E8990915305981710F48093530511
:104AE0008E9DC0011124B801815D9A4F0E94D5228C
:104AF000E091FC03F091FD039E8986899817A8F246
:104B0000F0920A04D2CFCD2B11F00E94C904E0909C
:104B10000804F0900904E114F10409F4AFC089E03D
:104B2000A82E77247394CC24CA94DC2C8091F504AD
:104B3000811192C0C0912C05D0912D052196D09362
:104B40002D05C0932C052097B9F48091FA0490911B
:104B5000FB042091F8043091F9043093FB04209376
:104B6000FA049093F9048093F80480912E058F5FE6
:104B700080932E050E94C90480912B0490912C04EF
:104B8000B12CC817D90708F05BC0E091FC03F09185
:104B9000FD03E689AE9EF0011124E15DFA4F8081AC
:104BA000823010F0BB24B39480910A04811103C0B9
:104BB000BB2009F45AC070920A0457C0E091FA046D
:104BC000F091FB040580F681E02D06811781D80164
:104BD00012968D919C91C817D90728F490932C04B4
:104BE00080932B04D2CF4801B2E08B0E911CC401FC
:104BF0000E94F522F80184899589892B21F0C8014A
:104C00000C960E94F522D80156968C9190915305EE
:104C1000981710F4809353058A9DC0011124B401A4
:104C2000815D9A4F0E94D522E091FC03F091FD0333
:104C3000D80156969C918689981710F0BB24B3949E
:104C4000E091FA04F091FB0480818111B7CFD092FA
:104C50002C04C0922B0499CF8091080490910904F0
:104C600001969093090480930804B1E0EB1AF108CF
:104C700009F05CCF109209041092080480910A0494
:104C8000882309F4F7CE0E94632481E0F4CEAF922A
:104C9000BF92CF92DF92EF92FF920F931F93CF9329
:104CA000DF9300D000D01F92CDB7DEB78C017B011F
:104CB0001D821C8280E0680128E0C20ED11C0FB664
:104CC000F8940F92F801228D938D291748F02C81CA
:104CD0003D81232B09F07CC00F900FBE80E023C0E4
:104CE000D28C448D41115AC080819181892B11F061
:104CF00080E009C0E480F580E114F10421F580E052
:104D0000F80115821482D394F801D28E91899923E7
:104D100021F0C80141960E94192381110E94632449
:104D20000F900FBE81E00F900F900F900F900F909B
:104D3000DF91CF911F910F91FF90EF90DF90CF9077
:104D4000BF90AF900895F70182A1815082A3268978
:104D500091A12917A1F28111D2CF5701F2E0AF0E34
:104D6000B11CC5010E94F522F70181A1868B24E0C8
:104D700030E0281B31093587248790915305981717
:104D800010F480935305F9E08F9FC0011124B50101
:104D9000815D9A4F0E94D52281E0B2CF50E0B701E9
:104DA000828193810E94A033F801848D2281338116
:104DB000820F932F911D93838283248135818217E3
:104DC000930708F495CF808191819383828390CF5C
:104DD000811109C080912E05898380912C059091C5
:104DE0002D059B838A830F900FBE0E94C4220FB6AD
:104DF000F8940F92F801858D8F3F09F4158EF80114
:104E0000868D8F3F09F4168E0F900FBEBE016C5F2A
:104E10007F4FCE0101960E94872281112AC00FB6D2
:104E2000F8940F92F801928D838D0F900FBE981316
:104E30001AC0AC80BD806091FC037091FD03645F7B
:104E40007F4FC6010E949A2361E0C5010E94FA23A8
:104E5000C8010E9458230E942125811102C00E948E
:104E6000632481E02CCFC8010E9458230E94212591
:104E7000F8CFC8010E9458230E9421252FCFCF933D
:104E8000DF9300D000D01F92CDB7DEB79C01809198
:104E9000F6049091F7040097B9F019827B836A8336
:104EA0003D832C8320912A05BE016F5F7F4F211126
:104EB0002091F5040E9447260F900F900F900F90BD
:104EC0000F90DF91CF91089580E0F6CFEF92FF929F
:104ED0000F931F93CF93DF93E0911504F091160485
:104EE0008081882369F10580F681E02D00811181A0
:104EF000C681D7817E0182E0E80EF11CC7010E94C5
:104F0000F522E889F989CE0109958A8982FFE4CFE3
:104F10008C859D85800F911F0817190760F49B836E
:104F20008A83D987C887B7018091150490911604A8
:104F30000E949A23D1CFB801CE010E943F27CCCF47
:104F40008091130490911404909316048093150497
:104F5000F0931404E0931304DF91CF911F910F910C
:104F6000FF90EF9008950E94C42260E081E090E0FD
:104F70000E94FA230E942125811102C00E9463240D
:104F800008950F920FB6F8940F921F9211242F924A
:104F90003F924F925F926F927F928F929F92AF92C9
:104FA000BF92CF92DF92EF92FF920F931F932F93B6
:104FB0003F934F935F936F937F938F939F93AF93A1
:104FC000BF93CF93DF93EF93FF93A091FC03B09136
:104FD000FD030DB60D920EB60D9213BE8091F50431
:104FE0008111F6C080912C0590912D05019690932A
:104FF0002D0580932C05009799F52091FA043091A6
:10500000FB044091F8045091F9045093FB04409341
:10501000FA043093F9042093F80420912E052F5FB1
:1050200020932E05E091FA04F091FB0420812111D8
:1050300007C02FEF3FEF30932C0420932B0410C0B8
:10504000E091FA04F091FB040580F681E02D0680E2
:10505000F781E02D2281338130932C0420932B049F
:1050600020912B0430912C048217930710F420E038
:105070009BC020E019E0E091FA04F091FB0430813C
:10508000311107C08FEF9FEF90932C0480932B0476
:105090008BC0E091FA04F091FB040580F681E02DCD
:1050A0000680F781E02D428153818417950728F40B
:1050B00050932C0440932B0477C0AF014E5F5F4F99
:1050C000A285B38564817581E680F780EB01FD825E
:1050D000EC82C681D7817B836A8311966D917C9126
:1050E00012974617570721F41296DC93CE93119727
:1050F000138612863C9131503C933C91A489B5892A
:105100001097F9F066857785E088F188EB01FD82DC
:10511000EC82C089D1897B836A831196ED90FC90E3
:105120001297BF01645F7F4FE616F70621F41296CF
:10513000DC93CE931197158A148A3C9131503C939D
:105140003C91A689309153053A1710F4A09353056A
:105150001A9FD0011124BD01615D7A4F7B01DB01F3
:105160001196CD91DC91D583C4836C817D81778349
:1051700066836C817D81DB0113965C934E9312975D
:105180005D834C83F386E286E70138813F5F388395
:10519000A091FC03B091FD03468956963C914317BC
:1051A00008F469CF21E067CFE091FC03F091FD03A3
:1051B000E689D9E0ED9FF0011124E15DFA4F80818D
:1051C000823008F021E080910A0481110EC00AC0EB
:1051D00080910804909109040196909309048093AA
:1051E00008046AC0222309F467C08091F50488236B
:1051F00021F081E080930A045FC010920A04A0911C
:10520000FC03B091FD03E091FC03F091FD032D91AF
:105210003C918789908D82179307A8F08091FC03B9
:105220009091FD038091FC039091FD03259A2D9AA6
:105230002FEF67EA71E6215060407040E1F700C04F
:1052400000001D9AF5CF2091530589E0422F50E0D0
:10525000849FF001859FF00D1124E15DFA4F90814C
:10526000911102C02150F2CFA181B28112960D900E
:10527000BC91A02DB283A183289FC00111248E5C14
:105280009A4FA817B90729F412968D919C91928391
:10529000818389E0849FF001859FF00D1124E15DF9
:1052A000FA4F0180F281E02D868197819093FD0372
:1052B0008093FC0320935305A091FC03B091FD0360
:1052C000CD91CDBFDD91DEBFFF91EF91DF91CF9109
:1052D000BF91AF919F918F917F916F915F914F910E
:1052E0003F912F911F910F91FF90EF90DF90CF9002
:1052F000BF90AF909F908F907F906F905F904F90F6
:105300003F902F901F900F900FBE0F900895CF9356
:10531000DF93009751F0EC010E94C422CE010E945D
:105320001733DF91CF910C942125DF91CF91089510
:10533000CF93DF93CDB7DEB72A970FB6F894DEBFD1
:105340000FBECDBFE0911504F09116048081FF24BB
:10535000F39410E000E0882331F00580F681E02D21
:1053600000811181F12C0E94C4220E94BA226C019A
:1053700080910C0490910D04C816D90608F448C019
:10538000D0920D04C0920C04FF2009F4CBC0E09130
:105390001304F09114048081BB24B3948111B12CC7
:1053A000E090F604F090F7040FB6F8940F92F7012E
:1053B000858D8F3F09F4158ED7015E968C915E978F
:1053C0008F3F11F45E961C920F900FBEF701828DF5
:1053D000811114C06091FC037091FD03645F7F4FE5
:1053E000C70141960E94D522C8018C199D09BB2096
:1053F00011F08FEF9FEF6B2D0E94FA23C7010E94DF
:1054000058230E94212581110BC00E94632408C0EB
:105410000E946627D0920D04C0920C040E942125A0
:105420000091F6041091F7041A86198680E068014D
:10543000F1E1CF0ED11C0FB6F8940F92D8015A9615
:10544000FC905A97FF2009F4A1C05C964C915C97A0
:10545000442301F150E016968D919C911797840F8B
:10546000951F17969C938E93169714962D913C91A9
:1054700015978217930738F08D919C911197179685
:105480009C938E931697F80166817781CE010196E1
:105490000E94A033FA94D8015A96FC925A97189613
:1054A0008C91882339F0C80108960E941923811134
:1054B0000E9463240F900FBED980D7FCB1CF0C811E
:1054C0001D81F80182859385892B21F0C801029600
:1054D0000E94F5220E94BA227C0180910C049091D6
:1054E0000D04E816F90610F40E946627F0920D04E8
:1054F000E0920C04F9E0FD1508F492CFED2DDD0CDF
:10550000FF0BE857F54DD80152968C910C947532EB
:10551000272B272B272B5F2B4A2B592B272B272B6E
:105520005F2B4A2BC016D10608F439CF0E942125E3
:10553000E0911504F09116040580F681E02DE680D7
:10554000F780C70102960E94F522D70152968C91EE
:10555000529782FF17C01C966D917C91600F711F4E
:105560009801A601C7010E94D023882321F0B80129
:10557000C7010E943F27D7015096ED91FC91C701CA
:1055800009954ECF8E7FF701828BF5CF29853A851D
:10559000232B19F40F900FBED5CE811109C0809135
:1055A0002E058E8380912C0590912D0598878F83F1
:1055B0000F900FBE0E94C4220FB6F8940F92F8010C
:1055C000858D8F3F09F4158ED8015E968C915E977C
:1055D0008F3F11F45E961C920F900FBEBE01675F65
:1055E0007F4FCE0106960E948722811125C0C801F7
:1055F0000E94CA228823D1F0E984FA846091FC03D6
:105600007091FD03645F7F4FC6010E949A2361E0A1
:10561000C7010E94FA23C8010E9458230E94212535
:10562000811102C00E94632481E005CFC8010E945D
:1056300058230E942125F8CFC8010E9458230E94B8
:105640002125C8010E94CA22882371F37BCE816084
:10565000F801828BCA80DB80648575856C0D7D1DA9
:105660009601A701C8010E94D023882309F4D8CE4F
:10567000D8015096ED91FC91C8010995F8018289F5
:1056800082FFCECE648575856C0D7D1DC8010E949C
:105690003F27C6CE8160F801828B6A817B81758746
:1056A00064876E0D7F1D9701A701C8010E94D0235A
:1056B000B7CE81FD04C0C8010E948729B1CE8E7F7C
:1056C000D80152968C93ACCECF93DF93EC010E941D
:1056D000C422CE010E947B32EC010E94212520973A
:1056E00069F4259A2D9A2FEF80E792E021508040AF
:1056F0009040E1F700C000001D9AF5CFCE01DF9188
:10570000CF9108957F928F929F92AF92BF92CF9246
:10571000DF92EF92FF920F931F93CF93DF93982E18
:10572000A92E762E872E7A01B22ECA010E94642BF2
:105730006C01892B09F42BC188E290E00E94642B54
:10574000EC01892B09F420C1D88ECF8AA70165EA24
:1057500070E0C6010E94A93321E0E21AF108EF8946
:10576000F88DEE0DFF1D672D782DCE0149969B011A
:10577000285F3F4FDB014D91BD01DC014D93CD0111
:10578000AB0141505109DA014C91442319F06217E1
:10579000730781F718A2BE8AB9A21AA21B861A86BD
:1057A0001D8A1C8AD987C88784E090E08B199109EB
:1057B0009D878C87DB8BCA8B1BA21CA21DA21EA2FD
:1057C0001FA291E19083DF01119782E28C931197E0
:1057D00023E32C9311979C921197AC9211971C92F2
:1057E000119720E82C9311971C92119722E02C938B
:1057F000119723E02C93119724E02C93119725E027
:105800002C93119726E02C93119727E02C93119756
:1058100028E02C93119729E02C93119720E12C93E9
:1058200011979C93119792E19C93119793E19C930C
:10583000119794E19C93119795E19C93119796E1B0
:105840009C93119797E19C93119798E19C931197E2
:1058500099E19C93119790E29C93119791E29C930C
:1058600011978C93119783E28C9311971C92119747
:105870001C92119786E28C93119787E28C93119773
:1058800088E28C93119789E28C93119780E38C9333
:10589000119781E38C93B697F983E883011511057D
:1058A00019F0F801D183C0830FB6F8940F9280915C
:1058B0002B058F5F80932B058091FC039091FD0356
:1058C000892B09F073C0D093FD03C093FC03809132
:1058D0002B05813081F58FE295E00E94552488E305
:1058E00095E00E94552481E495E00E9455248AE4C5
:1058F00095E00E94552480E295E00E94552487E1BE
:1059000095E00E9455248EE095E00E94552485E0A4
:1059100095E00E9455248CEF94E00E94552480E28B
:1059200095E09093FB048093FA0487E195E09093CF
:10593000F9048093F804809129058F5F80932905ED
:105940008E8990915305981710F480935305F9E0D0
:105950008F9FC0011124BE016E5F7F4F815D9A4F02
:105960000E94D5220F900FBE80912A05882351F006
:10597000E091FC03F091FD0396898E89981710F44D
:105980000E94632481E004C0C6010E9487298FEF32
:10599000DF91CF911F910F91FF90EF90DF90CF900B
:1059A000BF90AF909F908F907F90089580912A052F
:1059B0008111C1CFE091FC03F091FD039E8986899E
:1059C000981708F4B8CFD093FD03C093FC03B3CF6E
:1059D0000E94C1271895E5ECF6E080E292E0918301
:1059E00080831282138214821582E4EAF6E02BE6A9
:1059F00021832AE02283108221E0238340ED57E0B7
:105A00005583448340EA51E05783468360E971E05F
:105A100071876087228723872487258760E170E06C
:105A200077876687518B408B44E650E0538B428BDF
:105A3000248B258B268B278B28EB3BE0318F208F07
:105A40002AE030E0338F228F148E168E158E10A22E
:105A5000178E24E535E030939A06209399062BE9BA
:105A600036E03093A3062093A206EBECF6E0138217
:105A7000128248EE53E060E070E044835583668311
:105A800077832EE032E031832083E7EDF6E09183E7
:105A900080831282138214821582EDEDF6E09183E9
:105AA00080831282138214821582E3EEF6E09183E2
:105AB00080831282138214821582E9EEF6E09183CC
:105AC00080831282138214821582EFEEF6E09183B6
:105AD00080831282138214821582EBEFF6E09183A9
